:020000040800F2
:10000000680C0020890100080B1F0008791D0008FA
:10001000091F0008D50300089D1F0008000000000C
:100020000000000000000000000000000F1F00089A
:100030009B050008000000000D1F0008111F0008AC
:10004000A3010008A3010008A3010008A301000800
:10005000A3010008A3010008A3010008A3010008F0
:10006000A3010008A3010008A30100084D04000833
:10007000A3010008A3010008A3010008A3010008D0
:10008000A3010008A3010008A3010008A3010008C0
:10009000911F0008A3010008A3010008A3010008A4
:1000A000A3010008A3010008A3010008A3010008A0
:1000B000A3010008A3010008A3010008A301000890
:1000C000A3010008A3010008A3010008A301000880
:1000D000A3010008A3010008A3010008A301000870
:1000E000A3010008A3010008A301000800F002F822
:1000F00000F03AF80AA090E8000C82448344AAF188
:100100000107DA4501D100F02FF8AFF2090EBAE885
:100110000F0013F0010F18BFFB1A43F0010318473B
:100120001824000038240000103A24BF78C878C191
:10013000FAD8520724BF30C830C144BF04680C60ED
:10014000704700000023002400250026103A28BF35
:1001500078C1FBD8520728BF30C148BF0B60704739
:100160001FB51FBD10B510BD00F058F81146FFF7C0
:10017000F7FF01F055FF00F076F803B4FFF7F2FF48
:1001800003BC00F07DF8000009488047094800479B
:10019000FEE7FEE7FEE7FEE7FEE7FEE7FEE7FEE737
:1001A000FEE7FEE704480549054A064B7047000094
:1001B0008D1F0008ED00000868060020680C002074
:1001C00068080020680800204FF0000200B51346C0
:1001D00094469646203922BFA0E80C50A0E80C5067
:1001E000B1F12001BFF4F7AF090728BFA0E80C5018
:1001F00048BF0CC05DF804EB890028BF40F8042B11
:1002000008BF704748BF20F8022B11F0804F18BF7D
:1002100000F8012B7047704770477047754600F033
:100220002BF8AE4605006946534620F00700854688
:1002300018B020B5FFF7B6FFBDE820404FF000062C
:100240004FF000074FF000084FF0000B21F00701BE
:10025000AC46ACE8C009ACE8C009ACE8C009ACE801
:10026000C0098D46704710B50446AFF300802046A4
:10027000BDE81040FFF781BF004870470806002026
:1002800001491820ABBEFEE72600020070470000BF
:1002900070B5044600688168C943C90717D18168F1
:1002A00021F00101816001F069F905460AE000BF13
:1002B00001F064F9401B022804D920688068C0431B
:1002C000C00706D020688068C043C007F0D0002077
:1002D00070BDA06A40F01000A062E06A40F001002A
:1002E000E062012070BD10B50146406A826A12F0DA
:1002F000500F05D0006A026BBDE810400846104759
:10030000816A41F40071816201688968C1F34241E8
:1003100007290CD1017B51B9816A21F48071816276
:10032000816AC90403D4816A41F00101816200F04D
:1003300021FA10BD10B5406A816A41F04001816226
:10034000C16A41F00401C16200F016FA10BD10B597
:10035000406A00F010FA10BDF8B500260446009679
:1003600000688168C943C9072DD0816841F0010147
:100370008160164816490068B0FBF1F000E0401EAD
:1003800000900028FBD101F0F9F8054616E000BF07
:1003900001F0F4F8401B022810D920688068C0439F
:1003A000C0070BD0A06A40F01000A062E06A40F0E5
:1003B0000100E06284F824600120F8BD20688068B4
:1003C000C043C007E4D10020F8BD00008400002035
:1003D00040420F00FEE700000EB50D48002101224B
:1003E00081600260C16008210161002069460854F3
:1003F000401CC0B20828FAD30A4602AB044905489B
:1004000000F02AFB002801D072B6FEE70EBD000006
:1004100088000020E00500201CB501228DF80000B6
:100420000848002101AB02608160C0E90312014667
:100430006A46054800F010FB002801D072B6FEE7BE
:100440001CBD000088000020E0050020014800F0ED
:1004500087BE00009C0500202DE9F05FDFF8F480E6
:10046000002608F14D093B483B4C11300821027829
:10047000204601F07DF837481021203002782046D0
:1004800001F076F8334820212F300278204601F021
:100490006FF8304840213E300278204601F068F87D
:1004A000DFF8B8B0002542F2107A2A482C4C1038F8
:1004B00080210278204601F05BF8264840210B3865
:1004C0000278204601F054F822482021801F02784B
:1004D000204601F04DF8322001F094FD04221D4920
:1004E000204800F021FA322001F08CFD5FF000047A
:1004F00004EB850138F8140019F8017001F046FF8B
:100500006FF00B0101F0CDFF01F00EFF4FF06632EE
:10051000154B01F00BFE0022144B01F007FE01F019
:10052000D7FD81B2B1FBFAF20AFB1211C7EB071239
:100530000BEB4200641CE4B220F81610042CD7D355
:100540006D1CEDB2052DB0D3761CF6B20F2E8AD3FA
:10055000BDE8F09F14000020000C0140BC0000200A
:10056000000801406C05002066660A4000408F408C
:1005700030B590F840500124AC40C56B6C60046805
:1005800063604368102B036803D099600068C26001
:1005900030BD9A600068C16030BD704772B6FEE73A
:1005A000F8B500250446009590F82400012808D0ED
:1005B000012084F824002046FFF76AFE060002D0DE
:1005C00053E00220F8BDA06A20F4885040F00200F9
:1005D000A062022001F070F826490968B1FBF0F032
:1005E000400000E0401E00900028FBD12046FFF7AD
:1005F000B3FE2068816841F00801816000F0BEFF11
:10060000074608E000F0BAFFC01B0A2803D920689B
:100610008068000715D4206880680007F2D420683D
:10062000816841F00401816000F0A8FF074612E0F4
:1006300000F0A4FFC01B0A280DD92068806840077D
:1006400009D5A06A20F0020040F01000A06284F8F2
:1006500024500120F8BD206880684007E8D4A06AD3
:1006600020F0020040F00100A06284F824503046DF
:10067000F8BD000084000020F8B50024009490F834
:1006800024202546012A12D0012280F824204A681D
:100690001F23072A0DD20668776B521E02EB8202D7
:1006A00093409F430B6893401F43776319E00220F8
:1006B000F8BD06680D2A0AD2376BD21F02EB820200
:1006C00093409F430B6893401F43376309E0F76AE9
:1006D0000D3A02EB820293409F430B6893401F4305
:1006E000F7620A68072306680A2A0AD3F7680A3AF3
:1006F00002EB420293409F438B6893401F43F76095
:1007000008E0376902EB420293409F438B689340B5
:100710001F4337610A68102A01D0112A20D1124BD9
:1007200002689A4217D193681B0219D4936843F464
:10073000000393600968102912D10C490C4A09681A
:10074000B1FBF2F101EB8101490000E0491E00918B
:100750000029FBD104E0816A41F02001816201247B
:1007600080F824502046F8BD002401408400002079
:1007700040420F0070477047704700002DE9F0417C
:100780004FF0000704003D467ED0A06A002628B93D
:10079000E66284F82460204600F07EF82046FFF7E9
:1007A00077FDA16AC90600D420B1A06A40F010000C
:1007B000A06269E0A16A21F4885141F00201A162BE
:1007C0006268E169237B0A4347EA43010A43A1685F
:1007D0004FF48077B94209D0012907D05FF00001BA
:1007E00094F814C0BCF1010F02D00AE03946F7E7D3
:1007F000F3B1A36A43F02003A362E36A43F0010369
:10080000E3622368D3F804C02CF4694C4CEA010C71
:10081000C3F804C021688B68DFF870C003EA0C03DA
:1008200013438B60A168B9420BD0012909D00CE0B9
:10083000DFF85CC0A3690CEB43330B4343F4006166
:10084000DFE7218A0D05A5F580152168CB6A23F421
:1008500070032B43CB62216889680E4B194091428B
:1008600008D1E662A16A21F0020141F00101A16212
:10087000BDE8F081A06A20F0020040F01000A06204
:10088000E06A40F00100E0620120F1E7FDF7E1FFDE
:1008900000E0FFFFFE0E1FFF70B586B00026054684
:1008A000009601960296039600681A4988422FD155
:1008B0001949886940F400708861886900F4007003
:1008C0000490886940F0040088618869694600F0F6
:1008D000040004900F200090032001900F4800F0C6
:1008E0004FFD104C0E48C4E900068020C4E90260A8
:1008F00040002061800060612020A0610002E06172
:10090000204600F0D7FC08B1FFF748FE2C62656274
:1009100006B070BD002401400010024000080140F4
:10092000080002409C0500202DE9F0478946044656
:100930003B4900683B4F0E1D9046884201D0B842AB
:1009400007D1306810F4702F03D001252846BDE888
:10095000F08794F8240001280CD0012084F82400AA
:100960002046FFF7F9FC05004FF0000004D084F8A2
:100970002400EBE70220EAE7A16A40F60162914316
:1009800041F48071A1622168B94218D1326812F431
:10099000702F14D0A16A41F48011A1623168490519
:1009A00005D5A16A21F4005141F48051A162A16AE8
:1009B000C9040AD5E16A21F00601E16206E0A26AF3
:1009C00022F48012A2624968E9E7E06284F8240018
:1009D000216A15488862216A1448C862216A14484D
:1009E000086321686FF0020008602068816841F4A4
:1009F00080718160216843464A464C31206A00F08C
:100A000087FC20688168C1F342410729816803D0CF
:100A100041F48011816099E741F4A001FAE70000F8
:100A20000024014000280140E70200084F030008AD
:100A30003503000890F82020012A07D0022A05D0AB
:100A4000416A41F480214162012070470068426997
:100A50000A43426100207047F0B590F820500468C6
:100A6000A468012D05D0022D03D0416A41F48021F4
:100A70005DE014F0406F01D1E50055D5C4F3016489
:100A8000022C03D9416A41F4000150E00125A54040
:100A90001D608D684FF4C0739DB1CE6835434E68BC
:100AA00045EAC605066803EB0417F5514FF4C27515
:100AB000076805EB04150E697E51097D012905D0F3
:100AC00009E00E88CD6845EA4655EBE701684E59C6
:100AD00046F480764E511179D579567941EA05610F
:100AE00095792D0445EA062529434FF4C676056815
:100AF00006EB0416A9511178D57841EA056195787D
:100B000052782D0445EA022211434FF4C47502685D
:100B100005EB04155151006803EB0411425842F0F3
:100B2000010242500020F0BD416A41F400114162CF
:100B30000120F0BD10B590F820300268012B07D0DD
:100B4000022B05D0416A41F480214162012010BD91
:100B5000D2F8000240F00100C2F80002087D00F067
:100B60001F0301209840D2F81C328343C2F81C3284
:100B7000CB69B3B9D2F80C328343C2F80C328C89FA
:100B80004B6864F31F434C6902EBC404C4F8403261
:100B90000C890B6864F31F434C6902EBC404C4F86E
:100BA0004432CB69012B16D1D2F80C320343C2F880
:100BB0000C320C884B6864F31F434C6902EBC4048D
:100BC000C4F840320C89CB6864F31F434C6902EBD4
:100BD000C404C4F844328B69002BD2F804320FD01D
:100BE00053EA0003C2F804320B69002BD2F8143226
:100BF00008D00343C2F81432096A012904D008E07E
:100C00008343EFE78343F5E7D2F81C120143C2F8B0
:100C10001C12D2F8000220F00100C2F800020020ED
:100C200010BD704730B590F82040012C05D0022C43
:100C300003D0416A41F480215DE00468002955D069
:100C40002469A40754D04FF4D874056804EB011448
:100C50002D5915F00405956005682D594ED0ED0805
:100C6000556005682C5904F00204D4604FF4DA741E
:100C7000056804EB01142D5905F00F051561056891
:100C80002D59C5F30725956105682C59240C54612D
:100C90004FF4DC72046802EB0112A4581C70046863
:100CA000A458240A5C700468A458240C9C7004683E
:100CB000A258120EDA704FF4DE72046802EB0112D1
:100CC000A4581C710468A458240A5C710468A458D0
:100CD000240C9C710468A258120EDA71006881B16C
:100CE000016941F020010161002030BDE468A8E7FE
:100CF000416A41F400114162012030BD6D0D156063
:100D0000AFE7C16841F02001C160EDE72DE9F05F78
:100D10000546006800244669D0F804908768D0F83A
:100D20000CB0D0F810A0D0F81880F10748D0F9071F
:100D300014D001218160B80703D5284600F009FAD4
:100D40000CE0780702D54FF4006407E0380702D5BD
:100D50004FF4805402E0284600F0FAF9F80516D561
:100D600029684FF480708860B80503D5284600F0E4
:100D7000F2F90CE0780502D544F4005407E0380598
:100D800002D544F4804402E0284600F0E3F9F80379
:100D900016D529684FF480308860B80303D52846FB
:100DA00000F0DBF90CE0780302D544F4004407E0DE
:100DB000380302D544F4803402E0284600F0CCF930
:100DC000300707D55FEACB6004D52968102044F4CA
:100DD0000074C86070074FF0080707D55FEA0B7012
:100DE00004D52868C760284600F05AF9B00706D530
:100DF0002868C068800702D0284600F053F97006C2
:100E000007D55FEACA6004D52968102044F48064DD
:100E10000861B00607D55FEA0A7004D52868076143
:100E2000284600F065F9F00606D5286800698007B5
:100E300002D0284600F05DF9B00308D55FEAC9602A
:100E400005D5296810204860284600F053F9F003C2
:100E500007D55FEA097004D528684760284600F086
:100E60007DF9300446D55FEA497040D5F00504D5D8
:100E70005FEAC87001D044F00104B00504D55FEA10
:100E8000887001D544F00204700504D55FEA48700B
:100E900001D544F00404300529D518F0700F26D090
:100EA00008F07000402815D006DC102809D0202852
:100EB0000AD0302816D10AE050280ED0602811D16F
:100EC0000EE044F008040DE044F010040AE044F0A1
:100ED000200407E044F0400404E044F0800401E012
:100EE00044F480742868816921F070018161296867
:100EF00004204860002C05D0686A204368622846B8
:100F0000FFF78FFEBDE8F09F70B5040003D094F8A2
:100F1000200010B104E0012070BD204600F082F8EE
:100F20002068016841F00101016000F027FB0546DF
:100F3000052604E000F022FB401B0A2811D8206897
:100F40004068C007F6D02068016821F00201016006
:100F500000F014FB05460BE000F010FB401B0A28D4
:100F600006D9606A40F40030606284F82060D2E7FD
:100F7000206840688007EFD4207E0128206801683F
:100F80003DD021F080010160607E01282068016869
:100F900038D021F040010160A07E0128206801685E
:100FA00033D021F020010160E07E01282068016833
:100FB0002ED041F010010160207F012820680168D7
:100FC00029D021F008010160607F012820680168B4
:100FD00024D021F004010160D4E902010843D4E9DE
:100FE0000412114308436168491E08432168C8611F
:100FF00000206062012084F82000002070BD41F0D4
:101000008001C0E741F04001C5E741F02001CAE797
:1010100021F01001CFE741F00801D4E741F00401CD
:10102000D9E7000010B586B000210091019102912E
:1010300003910068174988422AD11748C16941F0D5
:101040000071C161C16901F000710491816941F0D1
:10105000040181618069114C00F0040004904FF498
:10106000006000906946204600F08AF9A0140090C4
:1010700002200190032003906946204600F080F989
:1010800000221146142000F0E5FA142000F0D4FAF2
:1010900006B010BD0064004000100240000801408E
:1010A000704700001CB56B460E4A0021FFF7BAFDE1
:1010B00000280CD10B480068002808D19DF80020BA
:1010C00001210948012A03D0092A00D101701CBD61
:1010D0008170C178491CC1704FF48071034800F0E1
:1010E0003FFA1CBDA00000200000002000080140C5
:1010F000704770477047000070B5044690F82000B4
:10110000012804D0606A40F40020606218E00220E8
:1011100084F820002068016821F00101016000F0DE
:101120002DFA05460EE000BF00F028FA401B0A2801
:1011300008D9606A40F400306062052084F820001D
:10114000012070BD20684068C007EDD1606270BDAD
:10115000704770477047704770477047704700008E
:101160002DE9F05FC16B0C6801680B68D0F840C0D6
:10117000042202FA0CF2494DDFF824A1494E4A4FED
:10118000DFF828B1DFF828E122422CD05A072AD50F
:101190000A68920603D40A6822F004020A60016811
:1011A000A94201D1042219E0514501D1402215E0A4
:1011B000B14202D14FF4806210E0B94202D14FF443
:1011C00080420BE0594502D14FF4802206E0714580
:1011D00002D14FF4800201E04FF080622F490839BC
:1011E0004A60C16A3BE04FF0020808FA0CF818EABE
:1011F000040F4FF000094FF0010235D05FEA837809
:1012000032D50B689B0605D40B6823F00A030B60EC
:1012100080F821200168A94201D1022219E051453C
:1012200001D1202215E0B14202D14FF4007210E04A
:10123000B94202D14FF400520BE0594502D14FF4AC
:10124000003206E0714502D14FF4001201E04FF088
:101250000072124908394A6080F82090816A00299A
:101260001AD0BDE8F05F0847082505FA0CF52542BD
:1012700012D01B0710D50B6823F00E030B6090F8FB
:101280004010C36B02FA01F15960826380F821209B
:1012900080F82090016BE2E7BDE8F09F0800024073
:1012A0001C0002403000024044000240580002404E
:1012B0006C00024030B528B308C813491422194401
:1012C000B1FBF2F18900C1631049816302214177CA
:1012D0001A6843F6F0718A43D0E900142143D0E93B
:1012E00002452C4321430469214344692143846915
:1012F00021431143196000214163012242770177A4
:10130000084630BD012030BDF8FFFDBF000002409F
:1013100070B5044690F82000002501280CD001206B
:1013200084F8200094F821600020012E06D084F873
:1013300020000225284670BD022070BD022684F8D8
:101340002160A0632068066826F00106066020463A
:10135000FFF70EF9E06A00282068016802D041F02A
:101360000E0106E021F0040101602068016841F0EF
:101370000A0101602068016841F001010160D9E7BC
:101380002DE9F84FDFF8B891002409F1040A0AF1B9
:10139000040B23460F270BF1040EC9E00125A540DD
:1013A0002A40AA427DD1674ED1F804C0ACEB0608B2
:1013B000B44532D014DCBCF1030F3AD009DCBCF1E7
:1013C000000F2AD0BCF1010F1CD0BCF1020F31D1AB
:1013D0001DE0BCF1110F17D0BCF1120F2AD119E09A
:1013E000B8F5881F19D006DCB8F5803F15D0B8F5E0
:1013F000801F1FD111E0B8F5001F0ED0B8F5041FF3
:1014000018D10AE0CB6815E0CB681B1D12E0CB6851
:1014100008330FE0CB680C330CE08B682BB1012B49
:101420004FF0080303D0456104E0042302E00561A6
:1014300000E00023FF2A01D8064601E000F104067F
:101440004FEA840501D9A5F12005D6F8008007FAF6
:1014500005FC28EA0C0803FA05F548EA0508C6F871
:1014600000804D68ED0062D5374DAE6946F001064B
:10147000AE61AD6924F0030605F001050095334D1A
:1014800006EB050CDCF80850A607360F07FA06F83D
:1014900025EA0805DFF8B880404503D14FF0000881
:1014A00017E044E0DFF8AC80404502D14FF001087E
:1014B0000FE0DFF8A480404502D14FF0020808E0B9
:1014C000DFF89880404502D14FF0030801E04FF06B
:1014D000040808FA06F848EA0508CCF808804D68C0
:1014E000D9F80060ED034D4601D5164300E0964360
:1014F0002E604D68DAF80060AD03554601D51643FD
:1015000000E096432E604D68DBF80060ED025D461A
:1015100001D5164300E096432E604D68DEF800606A
:10152000AD02754601D5164300E096432E60641C5B
:101530000D682A46E5407FF431AFBDE8F88F000022
:1015400000040140000011100010024000000140A2
:1015500000080140000C014000100140001401404F
:10156000C26821EA02030A4043EA0241016170476E
:101570000AB1016170470904FBE700000148806877
:10158000704700007800002002488168027811440A
:101590008160704778000020074810B5016841F06D
:1015A00010010160032000F075F80F2000F006F82C
:1015B00000F024F8002010BD0020024070B50D4D51
:1015C00004464FF47A712878B1FBF0F00A490968B3
:1015D000B1FBF0F000F0BCFB48B9102C07D20022A0
:1015E0002146501E00F036F800206C6070BD0120CE
:1015F00070BD000078000020840000200C4808B571
:10160000816941F001018161816901F0010100916D
:10161000C16941F08051C161C06900F08050009003
:101620000448416821F0E06141F00071416008BD6B
:101630000010024000000140002809DB00F01F02FA
:10164000012191404009800000F1E020C0F8001124
:1016500070470000F0B40E4B1B680C46C3F3022326
:10166000C3F10705042D00D90425191D072901D24E
:10167000002300E0DB1E012606FA05F1491E214089
:1016800099409E40761E16403143F0BC00F0AABC43
:101690000CED00E0064900F0070208684FF6FF0372
:1016A000184040EA0220034A1043086070470000D7
:1016B0000CED00E00000FA0510B529A401461DCC90
:1016C00086B08DE81D002AA02A4C006804900020F6
:1016D000012923D002293AD010291DD1616822683E
:1016E000D20119D5C1F38342C9031DF8020009D5FF
:1016F000616804AAC1F34041515C1F4AB2FBF1F199
:10170000484301E01D4948436168490204D4400050
:101710005FF00301B0FBF1F006B010BD226AC2F326
:101720000121012903D1920701D5C803F4E7022959
:1017300005D1626A920702D549F64040ECE70329D9
:10174000EAD121688903E7D54FF22440E4E700F0AD
:1017500029F96168C1F38131491C4900DAE70000C9
:1017600002030405060708090A0B0C0D0E0F1010E2
:10177000010200000010024000127A0000093D0042
:101780002DE9F84305460078354CC00754D0E06990
:101790000026C00008D4E06940F08050E061E069B4
:1017A000012600F0805000902E480168C90512D42F
:1017B0000168804641F480710160FFF7DFFE074653
:1017C00005E000BFFFF7DAFEC01B642823D8D8F875
:1017D0000000C005F6D5206A10F4407021D0A98819
:1017E00001F4407181421CD0206A1F49012220F47B
:1017F00040700A6000220A602062C00711D0FFF723
:10180000BDFE074641F2883808E000BFFFF7B6FE8C
:10181000C11B414502D90320BDE8F883206A800737
:10182000F4D5206A696820F44070084320621EB134
:10183000E06920F08050E0612878800705D5606875
:10184000A96820F44040084360602878C00605D5A8
:101850006068E96820F48000084360600020DBE7EE
:101860000010024000700040400442422DE9F04761
:101870000F46050061D0434E306800F00700B842C3
:1018800009D2306820F0070038433060306800F03B
:101890000700B84251D128683B4C810712D5400758
:1018A00003D5606840F4E06060602878000703D5E5
:1018B000606840F4605060606068A96820F0F000E3
:1018C000084360602878C00728D06868012810D0D5
:1018D0002168022810D0890700292EDA616821F0DA
:1018E000030101436160FFF749FE804641F28839F8
:1018F0000DE021688903EFE78901EDE7FFF73EFE80
:10190000A0EB0801494502D90320BDE8F0876068D3
:10191000696800F00C00B0EB810FEFD1306800F087
:101920000700B8420BD9306820F007003843306018
:10193000306800F00700B84201D00120E5E72878C0
:10194000400705D56068E96820F4E06008436060FE
:101950002878000706D56068296920F4605040EABD
:10196000C100606000F02EF86168084AC1F30311FD
:10197000515CC8400649086006480068FFF71EFE33
:101980000020C2E700200240001002401E2500088F
:10199000840000207C00002001480068704700009F
:1019A000840000200448054900684968044AC1F3DE
:1019B000C221515CC84070478400002000100240E2
:1019C0002E25000812A185B00FC98DE80F0014A0C4
:1019D000144A006804905168134801F00C03042B6A
:1019E00010D0082B0ED1C1F38343C9031DF80300A7
:1019F0000AD5516804AAC1F34041515C0A4A5043D8
:101A0000B0FBF1F005B0704708494843FAE7000021
:101A100002030405060708090A0B0C0D0E0F10102F
:101A2000010200000010024000127A0000093D008F
:101A30002DE9F84F040070D02078C04DC00749D080
:101A40006868C0F38100012807D06868C0F381008E
:101A5000022809D16868C00306D52868800339D5F3
:101A600060680028E7D035E06068B0F5803F0BD0B3
:101A700010B1B0F5A02F11D0286820F48030286074
:101A8000286820F4802002E0286840F48030286034
:101A9000606890B1FFF772FD06460AE0286840F4DE
:101AA00080202860F0E700BFFFF768FD801B6428F6
:101AB00073D828688003F7D50CE0FFF75FFD064672
:101AC00005E000BFFFF75AFD801B6428F0D82868A6
:101AD0008003F7D420789A4E80074FF001094FF029
:101AE000000839D5686810F00C0F07D06868C0F39B
:101AF0008100022809D16868C00306D428688007DD
:101B000014D52069012808D110E02069B0B1C6F8C9
:101B10000090FFF733FD074605E00AE1FFF72EFDD1
:101B2000C01B0228C4D828688007F7D528686169D7
:101B300020F0F80040EAC10028600DE0C6F80080FF
:101B4000FFF71CFD074604E0FFF718FDC01B022845
:101B500023D828688007F7D4207800072CD5794847
:101B6000A169D9B1C0F80090FFF708FD074604E06D
:101B7000FFF704FDC01B02280FD8686A8007F7D55D
:101B800071484FF4FA510068B0FBF1F0009000BFCB
:101B90000098411E0091FAD20EE080E0C0F800806B
:101BA000FFF7ECFC074604E0FFF7E8FCC01B022847
:101BB00075D8686A8007F7D42078400760D5E8694F
:101BC0000027C00008D4E86940F08050E861E86967
:101BD000012700F0805000905C480168C90513D4CB
:101BE0000168834641F480710160FFF7C7FC8246BB
:101BF00006E000BFFFF7C2FCA0EB0A0064284ED845
:101C0000DBF80000C005F5D5E06801280AD008B16E
:101C1000052813D0286A20F001002862286A20F0E5
:101C2000040002E0286A40F001002862E06841F206
:101C3000883B98B1FFF7A2FC82460BE0286A40F08F
:101C400004002862EEE700BFFFF798FCA0EB0A0152
:101C500059455AD8286A8007F6D50CE0FFF78EFC64
:101C6000824605E0FFF78AFCA0EB0A0159454CD8F3
:101C7000286A8007F6D41FB1E86920F08050E86137
:101C8000E06988B36968C1F38101022944D0022860
:101C9000C6F8608004D0FFF771FC044638E034E0F9
:101CA000FFF76CFC074604E0FFF768FCC01B022846
:101CB0002BD828688001F7D4206AB0F5803F05D181
:101CC0006868A16820F4003008436860D4E908011E
:101CD0000843696821F4741108436860C6F860908D
:101CE000FFF74CFC044606E025E000BFFFF746FC8A
:101CF000001B022809D828688001F7D51BE000BF27
:101D0000FFF73CFC001B022802D90320BDE8F88F36
:101D100028688001F4D40EE00128F7D06868226AB0
:101D200000F48031914204D1616A00F4701088425D
:101D300001D00120EAE70020E8E70000001002409F
:101D400000004242800442428400002000700040B3
:101D500010B5401EB0F1807F01D3012010BD4FF0BF
:101D6000E02460610F21601700F03CF90020A061C1
:101D700007202061002010BDFEE700003EB50024D2
:101D80002048009401941E490294016089158160E5
:101D900004730475042505614FF460214460C1613A
:101DA000FEF7ECFC08B1FEF7F9FB00940124019466
:101DB000694614480294FEF75FFC08B1FEF7EEFB9B
:101DC0000094022469460F480194FEF755FC08B1BF
:101DD000FEF7E4FB0094032469460A480194FEF7E9
:101DE0004BFC08B1FEF7DAFB69460648CDE9004531
:101DF000FEF742FC002801D0FEF7D0FB3EBD0000FC
:101E0000002401406C0500200F4810B50D49016009
:101E10000621416000214FF480328160C0E9031245
:101E200052014261017641768176C1760177417730
:101E3000FFF76AF8002803D0BDE81040FEF7AEBBFC
:101E400010BD000000640040E0050020074882B09B
:101E5000416941F0010141614069002200F0010047
:101E6000009011460B2002B0FFF7F4BB00100240B7
:101E70002DE9F04186B0002420480094019402949A
:101E80000394816941F020018161816901F02001A1
:101E90000491816941F004018161816901F00401CB
:101EA0000491816941F0080181618069144F00F05B
:101EB00008004FF4F0750490002229463846FFF7D9
:101EC00057FBDFF84080002278214046FFF750FBA7
:101ED0000095032601250396CDE90154694638464D
:101EE000FFF74EFA7820CDE90005CDE902466946B4
:101EF0004046FFF745FA06B0BDE8F0810010024009
:101F000000080140000C0140FEE7FEE77047704703
:101F1000FFF73ABB30B593B028216846FEF754F975
:101F200014210AA8FEF750F9002501200F951095FD
:101F30001195010412958DE8230004904FF4E010F0
:101F4000CDE90810022407946846FFF771FD08B137
:101F500072B6FEE70AA90F2081E831004FF48060D5
:101F6000CDE90D0502210AA8FFF780FC08B172B681
:101F7000FEE74FF4004011900F940FA8FFF700FC0C
:101F8000002801D072B6FEE713B030BD70470000E4
:101F90000148FEF7BBBE0000E0050020FEE70000A0
:101FA000F0B50F4C002104F51672002001EB8103FF
:101FB0005FEA8305C0EB001304EB430305EB400627
:101FC00033F81130401C1F0A97551644C0B2737085
:101FD0001428EFD3491CC9B20F29E6D3F0BD000085
:101FE000BC0000200907090E002804DB00F1E020F6
:101FF00080F80014704700F00F0000F1E02080F836
:10200000141D704710B50446FFF7C6FC0349B0FB2A
:10201000F1F16143491EFDD210BD000000093D00F1
:102020008AB0FFF7B9FAFFF775FFFFF721FFFFF757
:102030000DFFFFF7A3FEFFF7E7FE2148FEF7B0FA1A
:1020400000240126CDE9064605944FF6FF70009462
:10205000CDE90140CDE90304CDE90864694619489A
:10206000FEF768FD08B172B6FEE71648FFF744F8C0
:1020700008B172B6FEE702211248FEF7DBFC124DF2
:1020800008B172B6FEE7104F1C372878012803D03C
:102090006878012807D00AE0FEF7DEF9FFF780FF35
:1020A0002C706E70EC703878FEF7B6F96C70A8780A
:1020B0000128EAD10548FEF78FF9AC70E5E700008A
:1020C0006C050020E0050020000000201403002023
:1020D0004FEA1153A3F58063D3F11E03A8BFD3F1D8
:1020E000200C08DB4FF0004242EAC12252EA505273
:1020F00032FA03F0704709420BD4102BC4BF002002
:10210000704703F5787CBCF1FF3F05D04FF0FF30FE
:1021100070474FF00000704770B500F0B1F800BF95
:102120004992248000207047F0E70000DFF848C1A2
:1021300070B51CEA111E1EBF1CEA13159EEA0C0F97
:1021400095EA0C0F00F06F8081EA030423EA4C1338
:102150004EEAD47E21EA4C1141F4801143F48013FD
:10216000AE44A1FB024CA0FB0365AEF17F7E3619A5
:1021700055EB0C05A1FB034C4CF10003A0FB021C2A
:1021800016EB0C06654153F10003094218BF46F0F7
:10219000010613F4007F0BD14FEA03314FEA0530FB
:1021A000340341EA155140EA16506FF003020AE089
:1021B0004FEAC3214FEAC520F40241EA555140EAF3
:1021C00056506FF0020202EB2E4201EB025585EAF7
:1021D000CE710AD05FEA440C18BF24F0004450F1DD
:1021E000000041F1000120EAD47040F2FE7C62451B
:1021F00000D270BDA84214BF4FF080444FF040445D
:10220000002E08BF0024BEF1806FA8BFA1F1C0411D
:10221000BDE8704080F282804FF0000001F1C041C3
:1022200001F0004170479EEA0C0F0CEA131518BF2D
:1022300095EA0C0F06D04FF0000081EA030E0EF075
:10224000004170BD00F01CF88900013E00F007B8A5
:1022500000F009B84FEA430C5FEA5C5C08D081EA01
:10226000030100F05BB84FEA410C5FEA5C5CF6D119
:102270004FF00000014970470000FF070000F87FA1
:102280000EF1020E2EF0030E5EF8046B364205D4FA
:10229000012A43EB030515F5001F12D8012841EB75
:1022A000010C1CF5001F0CD80ED14FEAD17C15F59E
:1022B000001F0CEB4C0C0CF1020C08BF4CEBD37C58
:1022C00004E04FF0080C01E04FEAD37C0CEB4C0526
:1022D00026FA05F606F00706B6F1040C06D20EEB58
:1022E000860CBDE870404CF0010C6047DFE80CF054
:1022F000090B02024FF000414FF00000A1F5002150
:1023000070BD19461046012851EB010418BFD4F5E1
:10231000001484BF002001F0004170BD0808A0F542
:1023200000114FEA3101704743004FEAD30C4FEAE6
:102330003C0C43401FBF40070CF1605113F0FE4FAF
:1023400070471CF0006F03D100200CF00041704773
:102350000CF0004343EA507010B540EACC0000F0A6
:1023600028F800BF000000924FEA0001FFF7D6BF37
:102370004FF000414FF00000A1F500217047000030
:10238000014800F05CB800BF0000C07FB0FA80F3E5
:1023900010FA03F2C3F19D030AD0D90501EB122014
:1023A000530638BF704700F1010008BF20F001005C
:1023B00070470EF1020E2EF0030E5EF8044B24421D
:1023C00004D44FEA4102B2F17F4F11D84FEA4003E3
:1023D000B3F17F4F0CD80ED14FEAD07CB2F17F4FD2
:1023E0000CEB4C0C0CF1020C08BF4CEBD17C04E064
:1023F0004FF0080C01E04FEAD17C0CEB4C0324FABF
:1024000003F404F00704B4F1040C06D20EEB840CC0
:10241000BDE810404CF0010C6047DFE80CF0070805
:1024200002024FF00040A0F5800010BD08464200B7
:1024300018BFD2F1807288BF00F0004010BD0CF0D0
:102440000F03092B08BF082000F051800A2B0BD086
:10245000082B18BF704708BF1CF0400F0AD04FF080
:1024600000004FF0000170471CF0400F18BF4FF004
:10247000004070471CF0100F08D020F0704300F0AF
:102480007F4242EAD3014FEA4370704700F0604058
:1024900021F07F4242EA000201F07F4040EA727080
:1024A00070474FF0FF0212EAD0521CBF92F0FF03B8
:1024B0008B42C2BFD14200EBC1507047002A0AD004
:1024C000002B0BD0002900F00040A4BF40F0FE40DC
:1024D00040F40000704700F00040704743024FF0A6
:1024E0000B0C18BF4CF0806C7FF44AAF70471CF4A3
:1024F000801F11D01CF4E02F03D06FEACC314900CB
:1025000070474FF04050EFF3008222F0704242EAF1
:10251000000282F3008870474FF00000704700000F
:102520000000000000000102030406070809000083
:1025300000000102030400005825000800000020EC
:102540008800000028010008E0250008880000201D
:10255000E00B000044010008000000000001000141
:102560000000000101000000000001000000000068
:10257000000000000901020304050607080001002D
:102580000100010001000100010001000000010143
:102590000000010100000101000001000000000135
:1025A0000101010000000001010100000000000025
:1025B0000000010101010101010D1003060C1102CF
:1025C000070B1201080E0F04050A13000900000092
:1025D0000100000010000000000000000024F400D2
:04000005080000ED02
:00000001FF
