:020000040800F2
:10000000801B002089010008531A000855180008B9
:10001000511A000891020008611D0008000000004C
:100020000000000000000000000000005D1B000850
:10003000C902000800000000551A00085F1B0008F4
:10004000A3010008A3010008A3010008A301000800
:10005000A3010008A3010008A3010008A3010008F0
:10006000A3010008A3010008A3010008A3010008E0
:10007000A3010008A3010008A3010008A3010008D0
:10008000A3010008A3010008A3010008A3010008C0
:10009000551D0008A3010008A3010008A3010008E2
:1000A000A3010008A3010008A3010008A3010008A0
:1000B000A3010008A3010008A3010008A301000890
:1000C000A3010008A3010008A3010008A301000880
:1000D000A3010008A3010008A3010008A301000870
:1000E000A3010008A3010008A301000800F002F822
:1000F00000F03AF80AA090E8000C82448344AAF188
:100100000107DA4501D100F02FF8AFF2090EBAE885
:100110000F0013F0010F18BFFB1A43F0010318473B
:10012000F823000018240000103A24BF78C878C1D2
:10013000FAD8520724BF30C830C144BF04680C60ED
:10014000704700000023002400250026103A28BF35
:1001500078C1FBD8520728BF30C148BF0B60704739
:100160001FB51FBD10B510BD00F058F81146FFF7C0
:10017000F7FF01F087FF00F076F803B4FFF7F2FF16
:1001800003BC00F07FF80000094880470948004799
:10019000FEE7FEE7FEE7FEE7FEE7FEE7FEE7FEE737
:1001A000FEE7FEE704480549054A064B7047000094
:1001B000C11B0008ED00000880150020801B0020F6
:1001C00080170020801700204FF0000200B5134672
:1001D00094469646203922BFA0E80C50A0E80C5067
:1001E000B1F12001BFF4F7AF090728BFA0E80C5018
:1001F00048BF0CC05DF804EB890028BF40F8042B11
:1002000008BF704748BF20F8022B11F0804F18BF7D
:1002100000F8012B7047704770477047754600F033
:100220002BF8AE4605006946534620F00700854688
:1002300018B020B5FFF7B6FFBDE820404FF000062C
:100240004FF000074FF000084FF0000B21F00701BE
:10025000AC46ACE8C009ACE8C009ACE8C009ACE801
:10026000C0098D46704710B50446AFF300802046A4
:10027000BDE81040FFF781BF004870471C15002003
:100280007047000001491820ABBEFEE726000200BF
:10029000FEE700001CB500218DF80000084801AB06
:1002A0006A4681600160C160012101610146054823
:1002B00000F01FF8002801D072B6FEE71CBD000058
:1002C0005C00002050130020704772B6FEE790F8E3
:1002D0002020012A07D0022A05D0416A41F480215A
:1002E000416201207047006842690A434261002070
:1002F0007047F0B590F820500468A468012D05D02F
:10030000022D03D0416A41F480215DE014F0406F7A
:1003100001D1E50055D5C4F30164022C03D9416A2B
:1003200041F4000150E00125A5401D608D684FF4A7
:10033000C0739DB1CE6835434E6845EAC605066870
:1003400003EB0417F5514FF4C275076805EB04156C
:100350000E697E51097D012905D009E00E88CD681E
:1003600045EA4655EBE701684E5946F480764E5112
:100370001179D579567941EA056195792D0445EAD7
:10038000062529434FF4C676056806EB0416A951E5
:100390001178D57841EA0561957852782D0445EABF
:1003A000022211434FF4C475026805EB0415515144
:1003B000006803EB0411425842F001024250002051
:1003C000F0BD416A41F4001141620120F0BD00001E
:1003D00010B590F820300268012B07D0022B05D011
:1003E000416A41F480214162012010BDD2F800022F
:1003F00040F00100C2F80002087D00F01F03012058
:100400009840D2F81C328343C2F81C32CB69B3B98E
:10041000D2F80C328343C2F80C328C894B6864F3F7
:100420001F434C6902EBC404C4F840320C890B68CA
:1004300064F31F434C6902EBC404C4F84432CB6933
:10044000012B16D1D2F80C320343C2F80C320C88BF
:100450004B6864F31F434C6902EBC404C4F8403298
:100460000C89CB6864F31F434C6902EBC404C4F8E5
:1004700044328B69002BD2F804320FD053EA0003C8
:10048000C2F804320B69002BD2F8143208D00343AF
:10049000C2F81432096A012904D008E08343EFE767
:1004A0008343F5E7D2F81C120143C2F81C12D2F8BC
:1004B000000220F00100C2F80002002010BD7047C9
:1004C00030B590F82040012C05D0022C03D0416AB1
:1004D00041F480215DE00468002955D02469A40717
:1004E00054D04FF4D874056804EB01142D5915F05D
:1004F0000405956005682D594ED0ED0855600568D6
:100500002C5904F00204D4604FF4DA74056804EB4B
:1005100001142D5905F00F05156105682D59C5F316
:100520000725956105682C59240C54614FF4DC7241
:10053000046802EB0112A4581C700468A458240A31
:100540005C700468A458240C9C700468A258120EB5
:10055000DA704FF4DE72046802EB0112A4581C71C9
:100560000468A458240A5C710468A458240C9C7183
:100570000468A258120EDA71006881B1016941F075
:1005800020010161002030BDE468A8E7416A41F420
:1005900000114162012030BD6D0D1560AFE7C168EB
:1005A00041F02001C160EDE72DE9F05F05460068EC
:1005B00000244669D0F804908768D0F80CB0D0F8D1
:1005C00010A0D0F81880F10748D0F90714D0012105
:1005D0008160B80703D5284600F01FFA0CE07807C1
:1005E00002D54FF4006407E0380702D54FF4805479
:1005F00002E0284600F010FAF80516D529684FF4F5
:1006000080708860B80503D5284600F008FA0CE031
:10061000780502D544F4005407E0380502D544F4C7
:10062000804402E0284600F0F9F9F80316D529685D
:100630004FF480308860B80303D5284600F0F1F904
:100640000CE0780302D544F4004407E0380302D5F7
:1006500044F4803402E0284600F0E2F9300707D580
:100660005FEACB6004D52968102044F40074C860A8
:1006700070074FF0080707D55FEA0B7004D52868AC
:10068000C760284600F05AF9B00706D52868C06848
:10069000800702D0284600F053F9700607D55FEABC
:1006A000CA6004D52968102044F480640861B0064B
:1006B00007D55FEA0A7004D528680761284600F06C
:1006C0007BF9F00606D528680069800702D0284625
:1006D00000F073F9B00308D55FEAC96005D5296851
:1006E00010204860284600F069F9F00307D55FEA5A
:1006F000097004D528684760284600F093F9300453
:1007000046D55FEA497040D5F00504D55FEAC87068
:1007100001D044F00104B00504D55FEA887001D52A
:1007200044F00204700504D55FEA487001D544F036
:100730000404300529D518F0700F26D008F0700099
:10074000402815D006DC102809D020280AD03028EF
:1007500016D10AE050280ED0602811D10EE044F0E6
:1007600008040DE044F010040AE044F0200407E01F
:1007700044F0400404E044F0800401E044F4807458
:100780002868816921F0700181612968042048602E
:10079000002C05D0686A204368622846FFF78FFE68
:1007A000BDE8F09F70B5040003D094F8200010B1AC
:1007B00004E0012070BD204600F082F82068016846
:1007C00041F00101016000F03FFA0546052604E012
:1007D00000F03AFA401B0A2811D820684068C00788
:1007E000F6D02068016821F00201016000F02CFAC7
:1007F00005460BE000F028FA401B0A2806D9606A7B
:1008000040F40030606284F82060D2E720684068DD
:100810008007EFD4207E0128206801683DD021F0B8
:1008200080010160607E01282068016838D021F0D5
:1008300040010160A07E01282068016833D021F0CA
:1008400020010160E07E0128206801682ED041F07F
:1008500010010160207F01282068016829D021F063
:1008600008010160607F01282068016824D021F020
:1008700004010160D4E902010843D4E904121143E0
:1008800008436168491E08432168C861002060620E
:10089000012084F82000002070BD41F08001C0E7F5
:1008A00041F04001C5E741F02001CAE721F0100105
:1008B000CFE741F00801D4E741F00401D9E7000097
:1008C00010B586B00021009101910291039100685A
:1008D000174988422AD11748C16941F00071C161A6
:1008E000C16901F000710491816941F004018161E5
:1008F0008069114C00F0040004904FF400600090F7
:100900006946204600F0A2F8A01400900220019051
:10091000032003906946204600F098F80022114613
:10092000142000F0FDF9142000F0ECF906B010BD21
:1009300000640040001002400008014070470000C1
:100940007CB56B461A4A0021FFF7BAFD002824D176
:10095000184D6A1D6878012400B315480068012805
:100960001BD1AC702879641E401CC1B229714FF4B0
:1009700016756C4304EBC1010D4C00206B461C3412
:100980001D180E182644401C6D7880B206F8085CCD
:100990000828F5D35078FFF77DFC7CBD9DF800005A
:1009A0000928FAD15078FFF775FC6C707CBD000007
:1009B000740000200000002070477047704700005E
:1009C00070B5044690F82000012804D0606A40F415
:1009D0000020606218E0022084F82000206801688E
:1009E00021F00101016000F02FF905460EE000BF83
:1009F00000F02AF9401B0A2808D9606A40F4003048
:100A00006062052084F82000012070BD20684068E5
:100A1000C007EDD1606270BD704770477047704786
:100A2000704770477047000070B5044600F00CF93D
:100A30000546601C02D004480078044400F004F924
:100A4000401BA042FAD370BD100000202DE9F84FE2
:100A5000DFF8B891002409F1040A0AF1040B2346D7
:100A60000F270BF1040EC9E00125A5402A40AA4238
:100A70007DD1674ED1F804C0ACEB0608B44532D046
:100A800014DCBCF1030F3AD009DCBCF1000F2AD012
:100A9000BCF1010F1CD0BCF1020F31D11DE0BCF143
:100AA000110F17D0BCF1120F2AD119E0B8F5881F29
:100AB00019D006DCB8F5803F15D0B8F5801F1FD1DE
:100AC00011E0B8F5001F0ED0B8F5041F18D10AE0E8
:100AD000CB6815E0CB681B1D12E0CB6808330FE034
:100AE000CB680C330CE08B682BB1012B4FF0080363
:100AF00003D0456104E0042302E0056100E0002327
:100B0000FF2A01D8064601E000F104064FEA8405F9
:100B100001D9A5F12005D6F8008007FA05FC28EADE
:100B20000C0803FA05F548EA0508C6F800804D6888
:100B3000ED0062D5374DAE6946F00106AE61AD6994
:100B400024F0030605F001050095334D06EB050C76
:100B5000DCF80850A607360F07FA06F825EA08055C
:100B6000DFF8B880404503D14FF0000817E044E0BB
:100B7000DFF8AC80404502D14FF001080FE0DFF80C
:100B8000A480404502D14FF0020808E0DFF89880C9
:100B9000404502D14FF0030801E04FF0040808FA85
:100BA00006F848EA0508CCF808804D68D9F80060D6
:100BB000ED034D4601D5164300E096432E604D6887
:100BC000DAF80060AD03554601D5164300E09643C0
:100BD0002E604D68DBF80060ED025D4601D51643DE
:100BE00000E096432E604D68DEF80060AD02754669
:100BF00001D5164300E096432E60641C0D682A461A
:100C0000E5407FF431AFBDE8F88F000000040140FB
:100C100000001110001002400000014000080140D7
:100C2000000C01400010014000140140C26821EA9C
:100C300002030A4043EA0241016170470AB10161BF
:100C400070470904FBE70000014880687047000016
:100C500010000020024881680278114481607047CA
:100C600010000020074810B5016841F01001016034
:100C7000032000F075F80F2000F006F800F024F8CB
:100C8000002010BD0020024070B50D4D04464FF409
:100C90007A712878B1FBF0F00A490968B1FBF0F0ED
:100CA00000F071FC48B9102C07D200222146501EDA
:100CB00000F036F800206C6070BD012070BD0000AF
:100CC000100000201C0000200C4808B5816941F08C
:100CD00001018161816901F001010091C16941F067
:100CE0008051C161C06900F08050009004484168A3
:100CF00021F0E06141F00071416008BD0010024048
:100D000000000140002809DB00F01F020121914092
:100D10004009800000F1E020C0F800117047000099
:100D2000F0B40E4B1B680C46C3F30223C3F1070556
:100D3000042D00D90425191D072901D2002300E044
:100D4000DB1E012606FA05F1491E214099409E400E
:100D5000761E16403143F0BC01F003B80CED00E004
:100D6000064900F0070208684FF6FF03184040EA02
:100D70000220034A10430860704700000CED00E0B9
:100D80000000FA052DE9F0470F46050061D0434EFB
:100D9000306800F00700B84209D2306820F0070040
:100DA00038433060306800F00700B84251D12868FD
:100DB0003B4C810712D5400703D5606840F4E060E2
:100DC00060602878000703D5606840F46050606078
:100DD0006068A96820F0F000084360602878C007C8
:100DE00028D06868012810D02168022810D089070F
:100DF00000292EDA616821F0030101436160FFF7E9
:100E000023FF804641F288390DE021688903EFE72E
:100E10008901EDE7FFF718FFA0EB0801494502D96A
:100E20000320BDE8F0876068696800F00C00B0EB53
:100E3000810FEFD1306800F00700B8420BD930685D
:100E400020F0070038433060306800F00700B842F7
:100E500001D00120E5E72878400705D56068E968FA
:100E600020F4E060084360602878000706D56068D9
:100E7000296920F4605040EAC100606000F038F851
:100E80006168084AC1F30311515CC8400649086013
:100E900006480068FFF7F8FE0020C2E70020024085
:100EA00000100240FE2400081C0000201400002056
:100EB0000448054900684968044AC1F30221515CAD
:100EC000C84070471C000020001002400E2500089A
:100ED0000448054900684968044AC1F3C221515CCD
:100EE000C84070471C000020001002400E2500087A
:100EF00012A185B00FC98DE80F0014A0144A006834
:100F000004905168134801F00C03042B10D0082BF7
:100F10000ED1C1F38343C9031DF803000AD55168FC
:100F200004AAC1F34041515C0A4A5043B0FBF1F0BE
:100F300005B0704708494843FAE70000020304057A
:100F4000060708090A0B0C0D0E0F10100102000015
:100F50000010024000127A0000093D002DE9F84F10
:100F6000040070D02078C04DC00749D06868C0F335
:100F70008100012807D06868C0F38100022809D1E8
:100F80006868C00306D52868800339D560680028E2
:100F9000E7D035E06068B0F5803F0BD010B1B0F518
:100FA000A02F11D0286820F480302860286820F411
:100FB000802002E0286840F480302860606890B1AA
:100FC000FFF742FE06460AE0286840F480202860C9
:100FD000F0E700BFFFF738FE801B642873D828684D
:100FE0008003F7D50CE0FFF72FFE064605E000BFB3
:100FF000FFF72AFE801B6428F0D828688003F7D406
:1010000020789A4E80074FF001094FF0000839D53B
:10101000686810F00C0F07D06868C0F381000228E0
:1010200009D16868C00306D42868800714D52069F0
:10103000012808D110E02069B0B1C6F80090FFF790
:1010400003FE074605E00AE1FFF7FEFDC01B02288C
:10105000C4D828688007F7D52868616920F0F800AF
:1010600040EAC10028600DE0C6F80080FFF7ECFD03
:10107000074604E0FFF7E8FDC01B022823D82868D4
:101080008007F7D4207800072CD57948A169D9B119
:10109000C0F80090FFF7D8FD074604E0FFF7D4FD45
:1010A000C01B02280FD8686A8007F7D571484FF433
:1010B000FA510068B0FBF1F0009000BF0098411EAB
:1010C0000091FAD20EE080E0C0F80080FFF7BCFD8E
:1010D000074604E0FFF7B8FDC01B022875D8686A10
:1010E0008007F7D42078400760D5E8690027C00062
:1010F00008D4E86940F08050E861E869012700F011
:10110000805000905C480168C90513D4016883468B
:1011100041F480710160FFF797FD824606E000BF51
:10112000FFF792FDA0EB0A0064284ED8DBF8000020
:10113000C005F5D5E06801280AD008B1052813D00C
:10114000286A20F001002862286A20F0040002E0EA
:10115000286A40F001002862E06841F2883B98B1BB
:10116000FFF772FD82460BE0286A40F00400286217
:10117000EEE700BFFFF768FDA0EB0A0159455AD81A
:10118000286A8007F6D50CE0FFF75EFD824605E091
:10119000FFF75AFDA0EB0A0159454CD8286A800791
:1011A000F6D41FB1E86920F08050E861E06988B3A7
:1011B0006968C1F38101022944D00228C6F8608021
:1011C00004D0FFF741FD044638E034E0FFF73CFD72
:1011D000074604E0FFF738FDC01B02282BD828681B
:1011E0008001F7D4206AB0F5803F05D16868A16816
:1011F00020F4003008436860D4E9080108436968B6
:1012000021F4741108436860C6F86090FFF71CFD74
:10121000044606E025E000BFFFF716FD001B02288C
:1012200009D828688001F7D51BE000BFFFF70CFD47
:10123000001B022802D90320BDE8F88F286880012E
:10124000F4D40EE00128F7D06868226A00F48031F7
:10125000914204D1616A00F47010884201D00120EB
:10126000EAE70020E8E700000010024000004242E8
:10127000800442421C0000200070004070B5040051
:1012800009D0606A002540B125616561A56294F8C6
:10129000510040B10CE0012070BD6068B0F5827F64
:1012A000F4D0E561F2E784F85050204600F040F8B1
:1012B000022084F851002068016821F0400101609B
:1012C000A088218900F4827001F404410843A189B7
:1012D00001F400610843217C01F002010843217DF3
:1012E00001F001010843218B01F400710843217FC3
:1012F00001F03801084394F8201001F08001084300
:10130000218D01F40051084321680860A06904217F
:1013100001EA1040216848602068C16921F4006139
:10132000C1616565012084F85100002070BD000096
:1013300030B585B0002400940194029403940068B1
:101340001549884225D11548C16941F48041C161E0
:10135000C16901F480410491816941F00801816112
:1013600080690F4D00F0080004904FF42040009079
:10137000022001900320039069462846FFF766FB90
:101380004FF48040CDE90004694628460294FFF7F7
:101390005DFB05B030BD0000003800400010024089
:1013A000000C01402DE9F84F044690F8500000274A
:1013B0000A9E1D4692468B464FF0010901280ED029
:1013C000012084F85000FFF73FFC804694F851005C
:1013D000616801280CD0B1F5827F07D102E00220BC
:1013E000BDE8F88FA16809B9042801D00227C2E03E
:1013F000BBF1000F27D0BAF1000F24D01DB394F831
:101400005100042802D0052084F8510000206065B6
:10141000C4F838A0E587A587C4F830B0E586A5866E
:101420002064606420680168490603D4016841F0C3
:1014300040010160E068B0F5006F606805D0E8B376
:10144000012D46D07FE0012795E008B1012D39D16B
:10145000206B21680088C860206B801C2063E08EB0
:10146000401EE0862EE02068816889070FD5E18E56
:1014700069B1B9F1010F0AD1216B0988C160206BF4
:10148000801C2063E08E401EE0864FF0000920683B
:101490008168C9070CD0E18F51B1C068A16B088089
:1014A000A06B801CA063E08F401EE0874FF0010915
:1014B000FFF7CAFBA0EB0800B04200E009E001D34F
:1014C000701C50D1E08E0028CDD1E08F0028CAD109
:1014D0003FE0206B216800780873206B401C20637C
:1014E000E08E401EE0862EE02068816889070FD5D7
:1014F000E18E69B1B9F1010F0AD1216B097801734D
:10150000206B401C2063E08E401EE0864FF00009F7
:1015100020688168C9070CD0E18F51B1C068A16B08
:101520000870A06B401CA063E08F401EE0874FF066
:101530000109FFF789FBA0EB0800B04202D3701C41
:1015400001D010E07EB1E08E0028CDD1E08F0028E0
:10155000CAD142463146204600F07DFA28B1012723
:101560002020606507E0032705E0A06818B920681F
:10157000C16880680090012084F85100002084F840
:10158000500038462CE710B5401EB0F1807F01D3E3
:10159000012010BD4FF0E02460610F21601700F0C2
:1015A000E0FB0020A06107202061002010BD0000AA
:1015B00070B590F83C20012A26D0012480F83C40E8
:1015C000022280F83D2003685A689D6822F0700668
:1015D0000A6832435A600D4B02689A4208D0B2F151
:1015E000804F05D00A4B9A4202D00A4B9A4204D14E
:1015F000496825F080031943916080F83D4000213F
:1016000080F83C10084670BD022070BD002C0140DF
:10161000000400400008004010B5040003D094F816
:101620003D0010B107E0012010BD002084F83C000F
:10163000204600F01FF8022084F83D00211D20689C
:1016400000F0C0FA012084F8460084F83E0084F8D7
:101650003F0084F8400084F8410084F8420084F898
:10166000430084F8440084F8450084F83D000020DD
:1016700010BD000008B50068B0F1804F12D10A48D3
:10168000C16941F00101C161C069002200F001009F
:10169000009001211C20FFF743FBBDE808401C20FF
:1016A000FFF730BB08BD00000010024070B50446D3
:1016B00090F83C00012817D0012584F83C50022006
:1016C00084F83D002068826822F0770222F47F428D
:1016D00082600868502830D00DDC20284DD005DC11
:1016E00098B310283BD148E0022070BD302844D088
:1016F000402834D139E0602828D0702806D0B0F5D1
:10170000805F2CD0B0F5005F29D10AE0CB68D1E929
:101710000121206800F08CFA2068816841F077018F
:1017200009E0CB68D1E90121206800F081FA206846
:10173000816841F48041816011E0CA68496820688D
:1017400000F088FA5021206807E016E0CA6849686E
:10175000206800F090FA6021206800F073FA84F8A5
:101760003D50002084F83C0070BDCA68496820687C
:1017700000F070FA40212068EFE722680146104629
:10178000EBE770B5040004D094F83D00002510B1DB
:1017900006E0012070BD84F83C50204600F022F89D
:1017A000242084F83D002068C16821F40051C16004
:1017B000204600F073FA2068016921F4904101612C
:1017C0002068416921F02A0141612068C16841F423
:1017D0000051C1602564202084F83D0084F83E005B
:1017E000002070BD30B585B00024009401940294AF
:1017F000039400681449884224D11448816941F453
:1018000080418161816901F480410491816941F0E5
:101810000401816180690E4D00F0040004904FF4D2
:101820000070009002200190032003906946284632
:10183000FFF70CF92815CDE9000469462846029403
:10184000FFF704F905B030BD003801400010024038
:1018500000080140FEE710B50446002000F01AFE23
:10186000C4F3074000F008F9C4F3072000F004F9BE
:1018700004F0F80000F000F9002000F006F804463B
:10188000012000F007FE204610BD00F0F5B870B54D
:1018900004460D46002000F0FDFDC4F3074000F0B3
:1018A000EBF8C4F3072000F0E7F804F0F800001D9F
:1018B000C0B200F0E1F8284600F0DEF8BDE8704064
:1018C000012000F0E7BD00000F4810B50D49016090
:1018D0000621416000214FF480328160C0E903128B
:1018E00052014261017641768176C1760177417776
:1018F000FEF758FF002803D0BDE81040FEF7E5BC16
:1019000010BD0000006400405013002030B585B0C9
:10191000002414480094019402940394816941F0D6
:1019200020018161816901F020010491816941F008
:101930000401816180690C4D00F0040004900022D4
:1019400018212846FFF77AF9182000900120CDE9E8
:1019500001040220039069462846FFF777F805B096
:1019600030BD00000010024000080140104810B5D2
:101970000E4901604FF482714160002102228160B2
:10198000C0E9031201224261520282610822C0E9C9
:101990000721416281620A21C162FFF76FFC0028C2
:1019A00003D0BDE81040FEF790BC10BD00380040E9
:1019B0007813002010B586B00024164800940194D6
:1019C0000294039404944FF08041059401604721F0
:1019D000C0E901144FF47A71C0E903148461FFF780
:1019E0001BFE08B1FEF771FC4FF480500090694671
:1019F0000848FFF75BFE08B1FEF767FC049404A9F2
:101A000004480594FFF7D4FD002801D0FEF75DFCE3
:101A100006B010BDD01300200C4810B50A49016073
:101A20004FF4E1314160002181600C22C160C0E9C6
:101A300004128161C161FFF7A4FE002803D0BDE854
:101A40001040FEF742BC10BD0038014018140020C1
:101A5000FEE7FEE7704738B50B46009204460022C9
:101A6000802100F01FF8002804D0606D40F02000B5
:101A70006065032038BD00000EB501238DF8080015
:101A80006FF07F40009001AA02A90548FFF78AFC89
:101A900010B1FF208DF804009DF804000EBD000079
:101AA000C41400202DE9F8431E469146884604469A
:101AB000089DFFF7C9F8401B351AFFF7C5F8074620
:101AC00025480068C0F3CB30684338E0701C37D03D
:101AD000FFF7BAF8C01BA84203D215B1009860B353
:101AE0002CE02068416821F0E00141606068B0F5B9
:101AF000827F0BD1A068B0F5004F02D0B0F5806FA7
:101B000004D12068016821F040010160A06AB0F5AD
:101B1000005F09D12068016821F40051016020684C
:101B2000016841F400510160012084F85100002057
:101B300084F850000320BDE8F8830025401E009083
:101B40002068816838EA010004D000214945BDD1F0
:101B50000020F0E70121F9E71C0000207047FFF7A3
:101B600079B830B58FB028216846FEF72DFB1421D7
:101B70000AA8FEF729FB01210804CDE90010002482
:101B8000029402250491CDE907504FF4E01009902A
:101B90006846FFF7E3F908B172B6FEE70F20CDE91A
:101BA0000A054FF48060CDE90C4002210AA80E948A
:101BB000FFF7E8F8002801D072B6FEE70FB030BD9D
:101BC00070470000F0B50268164B174C174D4FF0E8
:101BD0008047984205D0B84203D0A04201D0A84225
:101BE00003D122F070064A683243984205D0B842C9
:101BF00003D0A04201D0A84203D122F44074CA68A5
:101C000022434C6922F08002224302608A68C26249
:101C10000A688262984201D1096901630121416128
:101C2000F0BD0000002C014000040040000800400E
:101C300010B5846842EA032224F47F440A43224315
:101C4000826010BD826822F070020A4342F00701F0
:101C50008160704710B5036A046A24F001040462CD
:101C6000846924F0F00444EA021423F00A020A43CF
:101C70008461026210BD10B5036A23F01003036291
:101C80008369046A23F4704343EA023224F0A00318
:101C900043EA01118261016210BD000070B5044683
:101CA00000680169E26821F4405111430161216932
:101CB000A0680843616908432168CA6841F20C635F
:101CC0009A430243CA6020684169A26921F44071C5
:101CD000114341611E492068884202D1FFF7F8F89C
:101CE00001E0FFF7E5F800EBC00101EB00126068CE
:101CF00064218000B2FBF0F3B3FBF1F36FF0180640
:101D00007343B2FBF0F5B2FBF0F605EB830532232B
:101D100003EB0515B5FBF1F5B6FBF1F605F0F005A3
:101D200005EB0615B2FBF0F6B2FBF0F0B0FBF1F0FC
:101D30006FF01802504306EB800003EB0010B0FB7D
:101D4000F1F0216800F00F002844886070BD0000A9
:101D5000003801400148FEF727BC00005013002066
:101D6000FEE70907090E002804DB00F1E02080F8F7
:101D70000014704700F00F0000F1E02080F8141DFF
:101D8000704770B505464FF4847000EB451004466B
:101D90001021FFF77CFD2046FFF75DFD0028FAD1FA
:101DA0004FF4027000EB4510BDE87040FF21FFF7D3
:101DB0006EBD2DE9F0410C46097817460546FF290E
:101DC00001D051B10FE06078FF280CD1A078FF2836
:101DD00009D1E078FF285AD005E0607818B9A078DA
:101DE00008B9E078E8B3E7B340F60840012600EB15
:101DF0004510FFF74CFD40F60850617800EB4510A8
:101E0000FFF745FD40F60860A17800EB4510FFF7AD
:101E10003EFD40F60870E17800EB4510FFF737FD16
:101E200041F20800390A00EB4510FFF730FD41F29E
:101E30000810F9B200EB4510FFF729FD4FF484704C
:101E400000EB451004460421FFF721FD2046FFF773
:101E500002FD0028FAD14FF4427000EB45142046F1
:101E600000E014E0FFF7F7FC152811D02046FFF73B
:101E7000F2FC17280CD0284600F050F80007EED5E9
:101E80004FF4027000EB45100821FFF700FD00261B
:101E90003046BDE8F081000070B505460C460120D3
:101EA00000F042F850B1132813D0172819D01C287D
:101EB00027D1BDE870400120FFF763BF1148202300
:101EC0000288511C0180BDE870400121084600F0E5
:101ED00055BA0D480D490288BDE870400120FFF752
:101EE00068BF012000F01AF8C00703D0012108469E
:101EF00000F0E5F922462946BDE87040012000F0D7
:101F000045B970BD52000020580000205400002048
:101F1000014931F810007047721400204FF402712B
:101F200001EB4010FFF797BC4FF4427101EB4010FA
:101F3000FFF791BC2DE9F04142F2080101EB401599
:101F400042F20811002601EB40142846FFF783FCFB
:101F500007462046FFF77FFC00EB072007043F0CF5
:101F600009D02846FFF777FC06462046FFF773FCAA
:101F700000EB062086B2BE42E7D13046BDE8F081D4
:101F80002DE9F0413B4886B0C16941F48041C1610F
:101F9000C16901F480410491816941F008018161C6
:101FA000816901F008010491816941F008018161B2
:101FB000816901F008010491816941F008018161A2
:101FC000816901F008010491816941F00801816192
:101FD0008069022700F0080004904FF42040CDE90A
:101FE00000070320DFF89080039069464046FEF723
:101FF0002DFD00247803CDE9000469464046029493
:10200000FEF724FD0122560231464046FEF716FE39
:102010000125CDE9006569464046FEF717FD1848E1
:10202000164901604FF48271C0E90114C0E9034709
:102030000821C0E9071407214462C0E90A41C0E948
:102040000556FFF71BF920208DE831006946404610
:10205000FEF7FCFC012210214046FEF7EFFD1020A8
:10206000CDE9000569464046FEF7F0FC06B0BDE844
:10207000F081000000100240000C014000380040D8
:10208000C41400208AB0FEF7EDFDFFF76AFDFFF7EC
:102090003DFCFFF719FCFFF769FCFFF7BDFCFFF7FC
:1020A00089FCFFF76DFF00F059F800F051F900F0DE
:1020B0000DF92449244800F0ABF900240126CDE9AC
:1020C000064603940494CDE90864059400940194B1
:1020D000029469461D48FEF77BF908B172B6FEE727
:1020E0001A48FEF76DFC08B172B6FEE702211748E8
:1020F000FEF7EDF808B172B6FEE76420FEF794FC37
:10210000134FDFF850907D1F4FF496582878012820
:1021100003D13878FEF7BEF82C70E878012809D191
:1021200041460D48FFF7B8FEEC702E700821484676
:10213000FEF77CFD10214846FEF778FDC820FEF72B
:1021400073FCE3E72800002020000020501300204B
:1021500005000020000801409000002010B50A4C46
:10216000002210212046FEF769FD0A20FEF75CFCE4
:10217000012210212046FEF761FDBDE810404FF41A
:10218000C860FEF751BC0000000C01402DE9F04191
:10219000154688460746FFF7BBFEA84203D23846DD
:1021A000FFF7B6FE05464FF4427000EB471638467F
:1021B000FFF7C0FE04463046FFF74DFB172803D05B
:1021C0001C2801D0002501E0AC42F0D32A4641464C
:1021D000384600F02DF84FF4847000EB47100446A9
:1021E0002021FFF754FB2046FFF735FB0028FAD1EA
:1021F0004FF4027000EB47142046FFF72CFBC0069B
:102200000CD43046FFF727FB1728F5D01C28F3D055
:102210003846FFF7B6FD0020BDE8F08120461021CA
:10222000FFF735FB20461021FFF731FB2846F3E787
:102230002DE9F0475FEA02088946064626D042F2B9
:10224000084000EB46152846FFF705FB074642F21B
:10225000085000EB46142046FFF7FDFA00EB07207C
:1022600087B2380200EB461042464946103000F073
:1022700021F907EB080086B2310A2846FFF707FB71
:10228000F1B22046BDE8F047FFF701BBBDE8F0879B
:1022900004220146900100F00DB9014606224FF4D8
:1022A000106000F007B9014604224FF4706000F09E
:1022B00001B9014604224FF4A06000F0FBB84FF4CE
:1022C000027202EB4010FFF7E2BA000010B51E499F
:1022D0001C4CC8692060088CA080D1F80300C4F8A9
:1022E0000600D1F80700C4F80A00D1F80B00C4F8C2
:1022F0000E00D1F80F00C4F812000878012810D1A0
:10230000487801280DD1114850F8061FC4F806106E
:102310004168C4F80A108168C4F80E10C068C4F897
:1023200012000120A0760020E07606480A30FFF770
:10233000C0FF04480E30FFF7ABFFA01DBDE8104002
:10234000FFF7B1BF94140020300000205C1400207F
:1023500010B5084C0648E1690160218C8180FFF7C7
:102360009CFF0548E1690160218C818010BD00005F
:1023700094140020300000205C1400202DE9F0416E
:10238000054601F00F001F4616460C4601280AD0EC
:10239000022808D0032806D0042804D0052802D03B
:1023A0000020BDE8F0812846FFF7EBFC082044EA56
:1023B000070100EB4510FFF76AFA4FF481604FF414
:1023C000A16100EB451001EB451426B1310AFFF77E
:1023D0005EFAF1B208E00D4E3188491C89B23180B5
:1023E000090AFFF754FA31782046FFF750FA4FF404
:1023F000847000EB451004460121FFF748FA20469F
:10240000FFF729FA0028FAD10120CAE7520000207C
:102410002DE9F05F0026DFF878A0884607463546AC
:1024200034464FF6FF790AF1100B41F60870395D1A
:1024300000EB4410FFF72BFA41F6086018F804107F
:1024400000EB4410FFF723FA00222AF814202BF89F
:1024500014204FF4804250465946964205DC17F846
:1024600004C009EA8C2320F81430954205DC18F8E2
:10247000043009EA832221F814203AF814000644B3
:102480003BF81400641C0544082CCEDBBDE8F09F2B
:1024900072140020064B4FF4007128B1012805D1B9
:1024A00001221846FEF7CABB0022FAE77047000077
:1024B000000C01402DE9F0410546002416460F4668
:1024C0002046FFF7E7FFC5F30740FFF7D5FAC5F34E
:1024D0000720FFF7D1FA05F0F800001DC0B2FFF7A2
:1024E000CBFA04E0385DFFF7C7FA641CA4B2B4422B
:1024F000F8D30120FFF7CEFF3046BDE8F0810000A1
:1025000000000000000001020304060708090000A3
:10251000000001020304000038250008000000202C
:102520005C00000028010008942500085C000020E1
:10253000241B000044010008010000000009010202
:102540000304050607080000010000001000000059
:10255000000000000024F400020202020202020253
:102560000202020202020202000000C0A83858FF64
:10257000FFFF00C0A80101DBDA121200000000001A
:10258000000000000008DC111111401FC0A8383401
:0425900088130000AC
:04000005080000ED02
:00000001FF
